:100000000C9462000C945D040C9436040C948A00E9
:100010000C948A000C948A000C948A000C948A0038
:100020000C948A000C948A000C948A000C948A0028
:100030000C948A000C948A000C948A000C948A0018
:100040000C94EC030C948A000C94BA030C94940363
:100050000C948A000C948A000C948A000C948A00F8
:100060000C948A000C948A000000000024002700F1
:100070002A0000000000250028002B0000000000DE
:1000800023002600290004040404040404040202DA
:100090000202020203030303030301020408102007
:1000A0004080010204081020010204081020000012
:1000B0000008000201000003040700000000000027
:1000C0000000E50911241FBECFEFD8E0DEBFCDBF91
:1000D00011E0A0E0B1E0E2EFF8E102C005900D927E
:1000E000A633B107D9F722E0A6E3B1E001C01D9223
:1000F000AF32B207E1F710E0C2E6D0E004C02197CA
:10010000FE010E945D0CC136D107C9F70E9484042C
:100110000C94770C0C940000CF92DF92EF92FF9238
:100120001F93CF93DF9392EF980F8E3008F0892FB3
:100130008770182F1064C4E6D0E0C12CD12C760152
:1001400010937C0080917A00806480937A00809183
:100150007A0086FDFCCF609178008091790070E094
:10016000782B072E000C880B990B0E940E0B2AE0AF
:1001700038E240EA5BE30E94C30B9B01AC01C7017C
:10018000B6010E94290A6B017C012197C9F620E083
:1001900030E048EC52E40E949A0ADF91CF911F911F
:1001A000FF90EF90DF90CF900895CF92DF92EF9283
:1001B000FF920F931F93CF93DF936C017A018B0112
:1001C000C0E0D0E0CE15DF0581F0D8016D918D0142
:1001D000D601ED91FC910190F081E02DC6010995C9
:1001E000892B11F02196EECF7E01C701DF91CF91CF
:1001F0001F910F91FF90EF90DF90CF900895089599
:1002000080E090E00895FC01538D448D252F30E06F
:10021000842F90E0821B930B541710F0CF96089513
:1002200001970895FC01918D828D981761F0828D60
:10023000DF01A80FB11D5D968C91928D9F5F9F731A
:10024000928F90E008958FEF9FEF0895FC01918DBC
:10025000828D981731F0828DE80FF11D858D90E029
:1002600008958FEF9FEF0895FC01918D228D892FC6
:1002700090E0805C9F4F821B91098F7399270895AE
:1002800082E991E00E94340121E0892B09F420E009
:10029000822F0895FC01848DDF01A80FB11DA35AA0
:1002A000BF4F2C91848D90E001968F739927848F96
:1002B000A689B7892C93A089B1898C9183708064B9
:1002C0008C93938D848D981306C00288F389E02D5A
:1002D00080818F7D80830895EF92FF920F931F930B
:1002E000CF93DF93EC0181E0888F9B8D8C8D9813E9
:1002F00005C0E889F989808185FD26C0F62E0B8D21
:1003000010E00F5F1F4F0F731127E02E8C8DE81246
:100310000CC00FB607FCFACFE889F989808185FF08
:10032000F5CFCE010E944A01F1CF8B8DFE01E80F7F
:10033000F11DE35AFF4FF0829FB7F8940B8FEA89C3
:10034000FB89808180620AC09FB7F894EE89FF899B
:100350006083E889F98980818370806480839FBF8E
:1003600081E090E0DF91CF911F910F91FF90EF908E
:100370000895CF93DF93EC01888D8823C9F0EA8933
:10038000FB89808185FD05C0A889B9898C9186FD8E
:100390000FC00FB607FCF5CF808185FFF2CFA8898B
:1003A000B9898C9185FFEDCFCE010E944A01E7CF3C
:1003B000DF91CF91089580E090E0892B29F00E9491
:1003C000400181110C9400000895833081F028F4DD
:1003D000813099F08230A1F008958730A9F08830FB
:1003E000B9F08430D1F4809180008F7D03C080917A
:1003F00080008F7780938000089584B58F7702C046
:1004000084B58F7D84BD08958091B0008F7703C03F
:100410008091B0008F7D8093B0000895CF93DF93DB
:10042000282F30E0F901E255FF4F8491F901E6569B
:10043000FF4FD491F901EA57FF4FC491CC2391F0BB
:1004400081110E94E501EC2FF0E0EE0FFF1FE45850
:10045000FF4FA591B491EC91ED2381E090E021F460
:1004600080E002C080E090E0DF91CF9108951F937B
:10047000CF93DF93282F30E0F901E255FF4F8491AD
:10048000F901E656FF4FD491F901EA57FF4FC491A5
:10049000CC23C1F0162F81110E94E501EC2FF0E072
:1004A000EE0FFF1FEE58FF4FA591B4919FB7F89440
:1004B000111104C08C91D095D82302C0EC91DE2B91
:1004C000DC939FBFDF91CF911F910895CF93DF936E
:1004D00090E0FC01E656FF4F2491FC01EA57FF4FE4
:1004E0008491882361F190E0880F991FFC01E859FD
:1004F000FF4FC591D491FC01EE58FF4FA591B491E7
:10050000611109C09FB7F894888120958223888360
:10051000EC912E230BC0623061F49FB7F894888170
:10052000322F309583238883EC912E2B2C939FBF01
:1005300006C08FB7F894E8812E2B28838FBFDF91F8
:10054000CF9108952FB7F89460913B0170913C01D1
:1005500080913D0190913E012FBF08950895CF9362
:10056000DF9383E00E940E02EC0182E00E940E0203
:100570008C0F9D1F892B41F061E085E00E943702BE
:1005800082E080937C010AC060E085E00E9437022F
:1005900080917C01823011F410927C01DF91CF9127
:1005A0000895009769F0FC0101900020E9F7319768
:1005B000AF01481B590BBC0182E991E00C94D500B6
:1005C00080E090E00895CF92DF92EF92FF920F9338
:1005D0001F93CF93DF93CDB7DEB7A1970FB6F894F3
:1005E000DEBF0FBECDBF9B01AC0119A28E010F5D16
:1005F0001F4F8AE0C82ED12CE12CF12CCA01B90181
:10060000A70196010E94300C605DF80162938F0192
:10061000211531054105510589F7CF010E94D1020D
:10062000A1960FB6F894DEBF0FBECDBFDF91CF917C
:100630001F910F91FF90EF90DF90CF9008950E944F
:10064000720C1F93CF93DF93EC010E94120A182FB4
:10065000CE0101960E94120A682F70E0762F66275D
:10066000610F711D80E090E0DF91CF911F9108959F
:10067000FF920F931F93CF93DF93EC01F62E088127
:100680001981C8010E94120AF81621F06F2DC801C5
:100690000E941A0ACE01DF91CF911F910F91FF9016
:1006A0000895CF92DF92EF92FF920F931F93CF9313
:1006B000DF9300D0CDB7DEB78C016A017B019A834E
:1006C0008983642FCE0101960E943803C8010196E8
:1006D0009A83898399278F2D7E2D6D2DCE010196CA
:1006E0000E943803C80102969A838983B70188273C
:1006F0009927CE0101960E9438030D5F1F4F1A8380
:1007000009836F2D772788279927CE0101960E94AC
:1007100038030F900F90DF91CF911F910F91FF90B1
:10072000EF90DF90CF9008951F920F920FB60F9227
:1007300011242F933F934F935F936F937F938F93E6
:100740009F93AF93BF93EF93FF9382E991E00E9451
:100750004A01FF91EF91BF91AF919F918F917F914E
:100760006F915F914F913F912F910F900FBE0F901E
:100770001F9018951F920F920FB60F9211242F936E
:100780008F939F93EF93FF93E091A201F091A301C8
:100790008081E091A801F091A90182FD12C09081B1
:1007A0008091AB018F5F8F732091AC01821751F064
:1007B000E091AB01F0E0EE56FE4F958F8093AB01D8
:1007C00001C08081FF91EF919F918F912F910F90A8
:1007D0000FBE0F901F9018951F920F920FB60F9299
:1007E00011242F933F938F939F93AF93BF93809147
:1007F0003B0190913C01A0913D01B0913E013091AF
:100800003A0123E0230F2D3720F40196A11DB11DDD
:1008100005C026E8230F0296A11DB11D20933A01C1
:1008200080933B0190933C01A0933D01B0933E0126
:100830008091360190913701A0913801B091390132
:100840000196A11DB11D8093360190933701A093AD
:100850003801B0933901BF91AF919F918F913F9132
:100860002F910F900FBE0F901F9018951F920F920F
:100870000FB60F9211242F933F934F935F936F9373
:100880007F938F939F93AF93BF93EF93FF93E091E9
:100890000201F09103010995FF91EF91BF91AF9192
:1008A0009F918F917F916F915F914F913F912F9188
:1008B0000F900FBE0F901F9018951F920F920FB6BA
:1008C0000F9211242F933F934F935F936F937F93D6
:1008D0008F939F93AF93BF93EF93FF93E0910001AA
:1008E000F09101010995FF91EF91BF91AF919F9117
:1008F0008F917F916F915F914F913F912F910F90C9
:100900000FBE0F901F901895789484B5826084BDB7
:1009100084B5816084BD85B5826085BD85B5816003
:1009200085BD80916E00816080936E001092810081
:10093000809181008260809381008091810081603C
:1009400080938100809180008160809380008091FD
:10095000B10084608093B1008091B0008160809389
:10096000B00080917A00846080937A0080917A0050
:10097000826080937A0080917A00816080937A000F
:1009800080917A00806880937A001092C10060E0C4
:1009900082E00E94660260E083E00E94660261E0FD
:1009A00085E00E94660261E086E00E94660261E0E6
:1009B00087E00E94660261E08BE00E94660261E0CF
:1009C0008CE00E94660261E08DE00E94660260E0B9
:1009D00085E00E94370260E086E00E94370260E016
:1009E00087E00E94370260E08BE00E94370260E0FF
:1009F0008CE00E94370260E08DE00E9437022FEA0F
:100A000032E0309303012093020180916900837FDB
:100A1000846080936900E99A30930101209300017A
:100A2000809169008C7F816080936900E89A0E94C0
:100A3000AF020E94A20260933F0170934001809335
:100A40004101909342010E94A2026093470170937A
:100A500048018093490190934A010E94A202609349
:100A60004301709344018093450190934601109295
:100A70004B0181E090E00E94210360934C01709350
:100A80004D0180934E0190934F0185E690E00E94C6
:100A90002103609350017093510180935201909310
:100AA000530189EC90E00E94210360936C017093E4
:100AB0006D0180936E0190936F01109274011092FA
:100AC0007501109276011092770181E991E00E9400
:100AD0002103609378017093790180937A01909358
:100AE0007B0185EF91E00E94210360935401709394
:100AF0005501809356019093570189E592E00E9439
:100B00002103609358017093590180935A01909387
:100B10005B0110925C0110925D0110925E011092D7
:100B20005F011092600110926101109262011092B7
:100B30006301109264011092650110926601109297
:100B40006701109268011092690110926A01109277
:100B50006B0110927001109271011092720110924B
:100B6000730110929101E091A201F091A30182E042
:100B70008083E0919E01F0919F011082E091A0019D
:100B8000F091A1018FEC80831092AA01E091A6015F
:100B9000F091A70186E08083E091A401F091A50186
:100BA000808180618083E091A401F091A501808122
:100BB00088608083E091A401F091A5018081806824
:100BC0008083E091A401F091A50180818F7D8083D5
:100BD000C1E0C0904701D0904801E0904901F090F9
:100BE0004A0120E6C20E2AEED21EE11CF11C0E9430
:100BF000A2026C157D058E059F0508F457C10E9461
:100C0000A202609347017093480180934901909339
:100C10004A018091740190917501A0917601B09183
:100C200077010196A11DB11D809374019093750108
:100C3000A0937601B093770180917801909179012A
:100C4000A0917A01B0917B010196A11DB11D809305
:100C5000780190937901A0937A01B0937B0186E1AA
:100C600091E00E94D10260917401709175018091B0
:100C70007601909177010E94E3028FE191E00E945A
:100C8000D10283E291E00E94D10286E291E00E94CB
:100C9000D102609178017091790180917A019091EF
:100CA0007B010E94E3028FE191E00E94D10283E286
:100CB00091E00E94D102D0917C01D23009F4A4C00D
:100CC00023E333E343E451E460917D0170917E01BD
:100CD00080917F01909180010E94C30B209170014F
:100CE0003091710140917201509173010E94290A63
:100CF0006B017C0120E030E040E752E40E94BE0B33
:100D000087FF09C0C0927001D0927101E092720118
:100D1000F092730123C020E030E040E752E4C701C5
:100D2000B6010E94280A609370017093710180934C
:100D300072019093730180916C0190916D01A0916B
:100D40006E01B0916F010196A11DB11D80936C01E0
:100D500090936D01A0936E01B0936F01D13009F0B3
:100D6000A5C02091890130918A0140918B01509159
:100D70008C0160918501709186018091870190912D
:100D800088010E94C30B6B017C0120E030E040E74A
:100D900052E40E94BE0B87FDD0C220E030E040E765
:100DA00052E4C701B6010E94280A6093640170935F
:100DB0006501809366019093670180914C01909149
:100DC0004D01A0914E01B0914F010196A11DB11DA1
:100DD00080934C0190934D01A0934E01B0934F012D
:100DE00080915C0190915D01A0915E01B0915F01E5
:100DF0000196A11DB11D80935C0190935D01A093AC
:100E00005E01B0935F0152C020917D0130917E015F
:100E100040917F0150918001609185017091860120
:100E200080918701909188010E94C30B6B017C0126
:100E300020E030E040E752E40E94BE0B87FDBCC2D8
:100E400020E030E040E752E4C701B6010E94280AE2
:100E5000609368017093690180936A0190936B01BC
:100E60008091500190915101A0915201B091530194
:100E70000196A11DB11D8093500190935101A09343
:100E80005201B09353018091600190916101A09152
:100E90006201B09163010196A11DB11D80936001B3
:100EA00090936101A0936201B0936301C0904301EC
:100EB000D0904401E0904501F090460180EEC80ECC
:100EC00083E9D81E84E0E81EF11C0E94A2026C1582
:100ED0007D058E059F0508F46CC00E94A2026093F8
:100EE00043017093440180934501909346018091A2
:100EF000740190917501A0917601B09177010196EE
:100F0000A11DB11D8093740190937501A09376018A
:100F1000B09377018091780190917901A0917A0145
:100F2000B0917B010196A11DB11D80937801909332
:100F30007901A0937A01B0937B0140914C015091CB
:100F40004D0160914E0170914F0181E090E00E944F
:100F500051034091500150915101609152017091A3
:100F6000530185E690E00E94510340916C0150913D
:100F70006D0160916E0170916F0189EC90E00E94AB
:100F80005103409174015091750160917601709107
:100F900077018DE291E00E945103409178015091D8
:100FA000790160917A0170917B0181E991E00E9461
:100FB00051030E94A20269367F4B8F4F9F4F10F062
:100FC000C0934B0180914B01882341F00E94A20203
:100FD000613C77428940910508F4B8C1C0903F0157
:100FE000D0904001E0904101F090420180EAC80EAB
:100FF0008FE0D81EE11CF11C0E94A2026C157D0539
:101000008E059F0528F080917C01823009F4BFC1D4
:1010100081E10E948C0020E030E048EC52E40E9424
:10102000C30B60938101709382018093830190933D
:1010300084018EE00E948C002BE83CE647EA5EE3E8
:101040000E949A0A25ED37EE42E85FE30E94C30B47
:101050004B015C0160938501709386018093870149
:10106000909388018FE00E948C0024E13EEA4FE1DA
:1010700050E40E94280A2BEE30E949E85DE30E9423
:101080009A0A26E135E348E95DE30E94290A6B01EB
:101090007C0120E030E0A9010E94950A87FF04C08E
:1010A000F7FAF094F7F8F094C0927D01D0927E01A7
:1010B000E0927F01F092800120E030E048E351E4CB
:1010C000C501B4010E94950A181654F1809191014E
:1010D000811126C0C093910110925C0110925D01B4
:1010E00010925E0110925F01409160015091610188
:1010F000609162017091630189E592E00E94510361
:101100008091600190916101A0916201B0916301B1
:101110008093580190935901A0935A01B0935B01B9
:1011200023E333E343E551E4609185017091860147
:1011300080918701909188010E94BE0B87FD2AC093
:1011400080919101882331F11092910140915C01CD
:1011500050915D0160915E0170915F0185EF91E0BA
:101160000E94510380915C0190915D01A0915E010C
:10117000B0915F018093540190935501A093560163
:10118000B0935701109260011092610110926201B8
:10119000109263019091910180917C01992329F033
:1011A000811107C0C0937C0104C0813011F41092FA
:1011B0007C0180917C01813009F04FC060915C011D
:1011C00070915D0180915E0190915F0120915401C9
:1011D0003091550140915601509157010E94300CB9
:1011E000A4E6B0E00E94520C0E940C0B60938D01AB
:1011F00070938E0180938F019093900160E08CE05A
:101200000E94370261E08BE00E94370260E08DE0CF
:101210000E94370280E10E948C0024E13EEA4FE107
:1012200050E40E94280A2BEE30E949E85DE30E9471
:101230009A0A26E135E348E95DE30E94290A6B0139
:101240007C0120E030E0A9010E94950A87FF62C07E
:10125000F7FAF094F7F8F0945DC0823009F049C0D5
:1012600060916001709161018091620190916301D0
:10127000209158013091590140915A0150915B01E0
:101280000E94300CA4E6B0E00E94520C0E940C0BAD
:101290009B01AC0160E070E088EC92E40E94280AB7
:1012A00060938D0170938E0180938F0190939001D4
:1012B00060E08CE00E94370260E08BE00E94370221
:1012C00061E08DE00E94370260E086E00E94370214
:1012D0002AE939E941E351E4609185017091860181
:1012E00080918701909188010E94950A181614F147
:1012F0001DC081111FC061E08CE00E94370260E0D8
:101300008BE00E94370260E08DE00E94370260E0CF
:1013100086E00EC0C0928901D0928A01E0928B01D2
:10132000F0928C0161E086E00E94370260E085E087
:101330000E9437020E94DB014CCCC0926401D09223
:101340006501E0926601F0926701B0CD0E94A202B1
:1013500060933F017093400180934101909342015B
:101360000E94A20260934701709348018093490153
:1013700090934A010E94A20260934301709344013A
:10138000809345019093460110924B0127CE0E9415
:10139000A20260933F0170934001809341019093BA
:1013A000420187E00E940E0261E0892B09F060E0B3
:1013B00087E00E9437022CCEC0926801D09269016A
:1013C000E0926A01F0926B0171CDE2E9F1E01382E3
:1013D000128288EE93E0A0E0B0E084839583A68338
:1013E000B78388E091E09183808385EC90E09587D6
:1013F000848784EC90E09787868780EC90E0918BDF
:10140000808B81EC90E0938B828B82EC90E0958BCB
:10141000848B86EC90E0978B868B118E128E138EC8
:10142000148E0895F999FECF92BD81BDF89A99273F
:1014300080B50895262FF999FECF1FBA92BD81BDC0
:1014400020BD0FB6F894FA9AF99A0FBE0196089546
:101450005058BB27AA270E94400A0C94840B0E9474
:10146000760B38F00E947D0B20F039F49F3F19F481
:1014700026F40C94730B0EF4E095E7FB0C946D0BC3
:10148000E92F0E94950B58F3BA1762077307840778
:10149000950720F079F4A6F50C94B70B0EF4E095BF
:1014A0000B2EBA2FA02D0B01B90190010C01CA011E
:1014B000A0011124FF27591B99F0593F50F4503EC9
:1014C00068F11A16F040A22F232F342F4427585FBB
:1014D000F3CF469537952795A795F0405395C9F7D3
:1014E0007EF41F16BA0B620B730B840BBAF091508B
:1014F000A1F0FF0FBB1F661F771F881FC2F70EC02A
:10150000BA0F621F731F841F48F4879577956795FC
:10151000B795F7959E3F08F0B0CF9395880F08F0E8
:101520009927EE0F9795879508950E94490B08F427
:1015300081E008950E94AE0A0C94840B0E947D0BFA
:1015400058F00E94760B40F029F45F3F29F00C948C
:101550006D0B51110C94B80B0C94730B0E94950BEE
:1015600068F39923B1F3552391F3951B550BBB27D2
:10157000AA2762177307840738F09F5F5F4F220F17
:10158000331F441FAA1FA9F335D00E2E3AF0E0E80E
:1015900032D091505040E695001CCAF72BD0FE2F58
:1015A00029D0660F771F881FBB1F261737074807EC
:1015B000AB07B0E809F0BB0B802DBF01FF279358A4
:1015C0005F4F3AF09E3F510578F00C946D0B0C94F0
:1015D000B80B5F3FE4F3983ED4F386957795679513
:1015E000B795F7959F5FC9F7880F911D96958795D9
:1015F00097F90895E1E0660F771F881FBB1F6217F8
:1016000073078407BA0720F0621B730B840BBA0BB5
:10161000EE1F88F7E0950895E89409C097FB3EF423
:1016200090958095709561957F4F8F4F9F4F99232F
:10163000A9F0F92F96E9BB279395F69587957795AD
:101640006795B795F111F8CFFAF4BB0F11F460FF6D
:101650001BC06F5F7F4F8F4F9F4F16C0882311F0C5
:1016600096E911C0772321F09EE8872F762F05C0D9
:10167000662371F096E8862F70E060E02AF09A9574
:10168000660F771F881FDAF7880F9695879597F969
:101690000895990F0008550FAA0BE0E8FEEF161603
:1016A0001706E807F907C0F012161306E407F50756
:1016B00098F0621B730B840B950B39F40A2661F0CA
:1016C000232B242B252B21F408950A2609F4A1406D
:1016D000A6958FEF811D811D089597F99F6780E87A
:1016E00070E060E008959FEF80EC089500240A9474
:1016F0001616170618060906089500240A941216ED
:101700001306140605060895092E0394000C11F41F
:10171000882352F0BB0F40F4BF2B11F460FF04C0CC
:101720006F5F7F4F8F4F9F4F089557FD9058440F25
:10173000551F59F05F3F71F04795880F97FB991F30
:1017400061F09F3F79F087950895121613061406ED
:10175000551FF2CF4695F1DF08C01616170618067A
:10176000991FF1CF86957105610508940895E89455
:10177000BB2766277727CB0197F908950E94490B6D
:1017800008F48FEF08950E94D60B0C94840B0E94EE
:10179000760B38F00E947D0B20F0952311F00C940D
:1017A0006D0B0C94730B11240C94B80B0E94950BC9
:1017B00070F3959FC1F3950F50E0551F629FF001A4
:1017C000729FBB27F00DB11D639FAA27F00DB11DBD
:1017D000AA1F649F6627B00DA11D661F829F222746
:1017E000B00DA11D621F739FB00DA11D621F839FCD
:1017F000A00D611D221F749F3327A00D611D231FA3
:10180000849F600D211D822F762F6A2F11249F57F0
:1018100050409AF0F1F088234AF0EE0FFF1FBB1FF3
:10182000661F771F881F91505040A9F79E3F5105B2
:1018300080F00C946D0B0C94B80B5F3FE4F3983E72
:10184000D4F3869577956795B795F795E7959F5F5C
:10185000C1F7FE2B880F911D9695879597F90895EE
:10186000A1E21A2EAA1BBB1BFD010DC0AA1FBB1FA4
:10187000EE1FFF1FA217B307E407F50720F0A21B16
:10188000B30BE40BF50B661F771F881F991F1A9483
:1018900069F760957095809590959B01AC01BD01AD
:1018A000CF0108950E94630CA59F900DB49F900DE9
:1018B000A49F800D911D11240895EE0FFF1F059028
:1018C000F491E02D0994A29FB001B39FC001A39FA2
:1018D000700D811D1124911DB29F700D811D112469
:1018E000911D089581E090E0F8940C94770CF894A1
:0218F000FFCF28
:1018F200AE02AE02000000006C01D5000301B90186
:10190200340112012601555054494D453A20006DCB
:10191200696E000D0A00555054494D4520546F74AC
:06192200616C3A20000098
:107E0000112484B714BE81FFF0D085E080938100F7
:107E100082E08093C00088E18093C10086E0809377
:107E2000C20080E18093C4008EE0C9D0259A86E02C
:107E300020E33CEF91E0309385002093840096BBD3
:107E4000B09BFECF1D9AA8958150A9F7CC24DD24C4
:107E500088248394B5E0AB2EA1E19A2EF3E0BF2EE7
:107E6000A2D0813461F49FD0082FAFD0023811F036
:107E7000013811F484E001C083E08DD089C08234E0
:107E800011F484E103C0853419F485E0A6D080C0E4
:107E9000853579F488D0E82EFF2485D0082F10E0AE
:107EA000102F00270E291F29000F111F8ED06801E7
:107EB0006FC0863521F484E090D080E0DECF843638
:107EC00009F040C070D06FD0082F6DD080E0C81688
:107ED00080E7D80618F4F601B7BEE895C0E0D1E017
:107EE00062D089930C17E1F7F0E0CF16F0E7DF06D8
:107EF00018F0F601B7BEE89568D007B600FCFDCFD4
:107F0000A601A0E0B1E02C9130E011968C91119780
:107F100090E0982F8827822B932B1296FA010C0160
:107F200087BEE89511244E5F5F4FF1E0A038BF0790
:107F300051F7F601A7BEE89507B600FCFDCF97BE46
:107F4000E89526C08437B1F42ED02DD0F82E2BD052
:107F50003CD0F601EF2C8F010F5F1F4F84911BD097
:107F6000EA94F801C1F70894C11CD11CFA94CF0C13
:107F7000D11C0EC0853739F428D08EE10CD085E9AC
:107F80000AD08FE07ACF813511F488E018D01DD067
:107F900080E101D065CF982F8091C00085FFFCCF94
:107FA0009093C60008958091C00087FFFCCF809118
:107FB000C00084FD01C0A8958091C6000895E0E648
:107FC000F0E098E1908380830895EDDF803219F02E
:107FD00088E0F5DFFFCF84E1DECF1F93182FE3DFCA
:107FE0001150E9F7F2DF1F91089580E0E8DFEE27F6
:047FF000FF270994CA
:027FFE00040479
:0400000300007E007B
:00000001FF